:020000040800F2
:100000000000022015110008211000082910000826
:1000100031100008391000084110000800000000ED
:10002000000000000000000000000000491000086F
:100030005710000800000000651000087510000847
:1000400065110008651100086511000865110008B8
:10005000651100086511000891100008651100087D
:100060006511000865110008651100086511000898
:100070006511000865110008651100086511000888
:100080006511000865110008651100086511000878
:10009000A11000086511000865110008651100082D
:1000A00065110008B5100008651100086511000809
:1000B0006511000865110008651100086511000848
:1000C0006511000865110008651100086511000838
:1000D000651100086511000865110008C9100008C5
:1000E0006511000865110008651100086511000818
:1000F0006511000865110008651100086511000808
:1001000065110008651100086511000865110008F7
:1001100065110008651100086511000865110008E7
:1001200065110008651100086511000865110008D7
:1001300065110008000000000000000065110008C3
:10014000DD10000865110008651100086511000840
:1001500065110008651100086511000865110008A7
:100160006511000865110008651100086511000897
:100170006511000865110008000000000000000083
:0801800065110008651100087B
:1001880010B5054C237833B9044B13B10448AFF3C9
:1001980000800123237010BD100000200000000023
:1001A800F048000808B5034B1BB103490348AFF3F7
:1001B800008008BD0000000014000020F04800087E
:1001C80053B94AB9002908BF00281CBF4FF0FF31B6
:1001D8004FF0FF3000F088B9ADF1080C6DE904CE9E
:1001E80000F006F8DDF804E0DDE9022304B070470A
:1001F8002DE9F047089D8E4604468846002B4AD1D3
:100208008A42174662D9B2FA82F64EB1C6F1200385
:1002180001FA06F820FA03F3B74043EA0808B440A5
:100228004FEA174E1FFA87FCB8FBFEF1230C0EFBB2
:10023800118843EA084301FB0CF29A4209D9FB18DA
:1002480001F1FF3080F0EA809A4240F2E7800239FB
:100258003B449A1AA3B2B2FBFEF00EFB102243EA0B
:10026800024300FB0CFC9C4509D9FB1800F1FF3246
:1002780080F0D6809C4540F2D3803B44023840EA67
:100288000140A3EB0C0300211DB1F3400022C5E996
:100298000032BDE8F0878B4205D90DB1C5E90001F0
:1002A80000210846F5E7B3FA83F1002946D17345E2
:1002B80002D3824200F20581841A6EEB0302012008
:1002C8009046002DE5D0C5E90048E2E7002A00F095
:1002D8009080B2FA82F6002E40F0A4808A1A030CAD
:1002E8004FEA174E80B2BCB20121B2FBFEFC0EFBF6
:1002F8001C2243EA024304FB0CF29A4207D9FB187A
:100308000CF1FF3802D29A4200F2E080C4469B1AF0
:10031800B3FBFEF20EFB123340EA034302FB04F484
:100328009C4207D9FB1802F1FF3002D29C4200F22E
:10033800CA8002461B1B42EA0C40A5E7C1F1200611
:100348008B4022FA06F71F430EFA01F420FA06F34F
:100358002EFA06FE4FEA1749234300FA01F81FFA5E
:1003680087FCBEFBF9F01C0C09FB10EE44EA0E44B6
:1003780000FB0CFEA64502FA01F209D93C1900F16E
:10038800FF3A80F09C80A64540F2998002383C44B0
:10039800A4EB0E041FFA83FEB4FBF9F309FB134424
:1003A8004EEA044403FB0CFCA44508D93C1903F1AC
:1003B800FF3E80F08280A4457FD9023B3C4443EA5B
:1003C8000040A4EB0C04A0FB02EC64457346E14634
:1003D80062D35FD05DB1B8EB030264EB090404FAA1
:1003E80006F622FA01F31E43CC40C5E90064002159
:1003F8004FE7B1FBF2FC010C41EA0E4180B240EA42
:1004080001423B4638463C46B846BE462026B1FB2C
:10041800F7F1A2EB080241EA0C4166E7014618E74A
:1004280010462CE7C6F120022EFA02F3B740B1407D
:1004380020FA02F24FEA174E0A43B3FBFEF8BCB2A9
:100448000EFB1833110C41EA034108FB04F9B040D4
:1004580089454FEA104380B23ED9791808F1FF3C2C
:1004680001D289451FD8A1EB0901B1FBFEF909FBAF
:1004780004F80EFB191192B242EA0142424529D210
:10048800BA1809F1FF31C4D24245C2D2A9F102011A
:100498003A44BEE7F0459DD2BEEB02036CEB070C75
:1004A8000138E14696E7A7EB09094944A8F1020C8F
:1004B800B1FBFEF909FB04F8DBE773467FE750461A
:1004C80066E70846FDE63B44023A33E7ACF1020C26
:1004D8003B441CE749469CE7A1EB0901C446B1FB34
:1004E800FEF909FB04F8C4E7704700BF80B483B085
:1004F80000AF78600B46FB70012318460C37BD46E9
:100508005DF8047B7047000080B582B000AF0346F9
:100518000A46FB711346BB710C4AFB7913700B4AF0
:10052800BB7953700A4B1B7803F00F03DAB2074B01
:100538009A7107210548FFF7D9FF03461A46034B6E
:10054800DA7100BF0837BD4680BD00BFA01100208A
:10055800B011002080B500AF104B1A78104B1A70FC
:100568000E4B5A780E4B5A700C4B1A780B4B5B7823
:100578001344DAB20A4B9A700A4B1B7803F00F0344
:10058800DAB2074B9A7107210548FFF7AFFF034618
:100598001A46034BDA7100BF80BD00BF98110020D6
:1005A80090110020B011002080B584B000AF7860B1
:1005B800084B1B780133DAB2064B1A7007F10C03AB
:1005C800054A0649064801F081F800BF1037BD46C4
:1005D80080BD00BFB0110020A011002048010020FC
:1005E8005400002080B584B000AF7860084B1B78B9
:1005F8000133DAB2064B1A7007F10C03054A0649B3
:10060800064801F063F800BF1037BD4680BD00BF43
:10061800B011002090110020080100202C000020BB
:1006280080B58CB000AF786007F1080307F11002BD
:100638000021786801F025F97B681B68234A9342FA
:100648001DD1234B1B78022B19D1002387F82F309B
:100658000EE097F82F2097F82F3030323A4412F8EE
:10066800281C1C4AD15497F82F30013387F82F30B3
:1006780097F82F30072BECD9154B03221A707B689B
:100688001B68154A93421DD1114B1B78052B19D1B4
:10069800002387F82E300EE097F82E2097F82E309A
:1006A80030323A4412F8281C0C4AD15497F82E30AC
:1006B800013387F82E3097F82E30072BECD9044BEE
:1006C80006221A7000BF3037BD4680BD0064004066
:1006D800000000209811002000680040A8110020A8
:1006E80080B483B000AF78607B681B68074A934288
:1006F80006D1074B1B78002B02D1054B01221A703B
:1007080000BF0C37BD465DF8047B70470000014010
:100718000000002080B582B000AF0023FB800023DA
:10072800BB8000F01DFD00F081F800F015FA00F024
:10073800E7F800F03FF900F0E5F900F091F900F072
:1007480087FA00F0A9FA304B1B68DA682E4B1B6851
:1007580042F02002DA6002212C4801F039FF0346FA
:10076800002B1AD1142000F0F3FA294800F0B8FA47
:1007780000BF0221254801F02BFF0346002BF8D0CB
:1007880000F066FA00F088FA224800F0A9FA14206E
:1007980000F0DEFA204BFF221A70204B1B78062B44
:1007A800D9D801A252F823F05F070008CD07000846
:1007B8005F070008E9070008F10700085F0700085D
:1007C80003080008154B02221A7002210120FFF7C6
:1007D8009BFE1348FFF7E8FE124802F01DFC11E0EB
:1007E8000E4B04221A700DE0FFF7B4FE0B4B0522E6
:1007F8001A700D48FFF7F6FE04E0084B00221A7045
:1008080000BFA8E7A7E700BFC4000020000002401F
:100818000849000810490008B11100200000002014
:10082800A01100207C0000209011002080B594B019
:1008380000AF07F1200330220021184604F028F801
:1008480007F10C0300221A605A609A60DA601A6194
:100858000023BB60284B1B6C274A43F0805313646A
:10086800254B1B6C03F08053BB60BB6800237B6087
:10087800224B1B68214A43F4804313601F4B1B68BB
:1008880003F480437B607B6802233B620123FB62A5
:1008980010233B630223BB630023FB6308233B64F1
:1008A80050237B640223BB640423FB6407F1200309
:1008B800184601F0C9FE0346002B01D000F055FA96
:1008C8000F23FB6002233B6100237B614FF48053BD
:1008D800BB614FF48053FB6107F10C0302211846FA
:1008E80002F02AF90346002B01D000F03EFA00BFBF
:1008F8005037BD4680BD00BF003802400070004040
:1009080080B500AF284B294A1A60274B05225A6048
:10091800254B00229A60244B4FF08072DA60224BFC
:100928004FF420221A61204B4FF440125A611E4B9B
:1009380000221A761C4B00225A761B4B00229A760C
:10094800194B0022DA76184B00221A77164B002230
:100958005A77154800F09AFC0346002B01D000F0A6
:1009680004FA134B0E225A62114B00225A61104BA3
:1009780000229A610E4B0122DA610D4B4FF4A2520C
:100988001A600B4B00225A60094B4FF6E0729A60CE
:10099800074B0022DA60064B00221A61044B012241
:1009A8001A6200BF80BD00BF2C0000200064004018
:1009B8002001002080B500AF264B274A1A60254B3E
:1009C80005225A60234B00229A60224B4FF0807216
:1009D800DA60204B4FF420221A611E4B4FF440126C
:1009E8005A611C4B00221A761A4B00225A76194B70
:1009F80000229A76174B0022DA76164B00221A77D5
:100A0800144B00225A77134800F040FC0346002B91
:100A180001D000F0AAF9114B0E225A610F4B0022A7
:100A28009A610E4B0122DA610C4B4FF410721A6076
:100A38000A4B00225A60094B4FF6E0729A60074B46
:100A48000022DA60054B00221A61044B01221A6267
:100A580000BF80BD540000200068004060010020F5
:100A680080B586B000AF07F1080300221A605A600B
:100A78009A60DA603B4600221A605A601F4B204A8F
:100A88001A601E4B40F21F325A601C4B00229A60BB
:100A98001A4B41F28732DA60184B00221A61174B61
:100AA80000225A61154B00229A61144802F064FA38
:100AB8000346002B01D000F058F94FF48053BB6077
:100AC80007F1080319460D4802F01EFC0346002BE7
:100AD80001D000F04AF900233B6000237B603B46CD
:100AE8001946064802F03AFE0346002B01D000F0F2
:100AF8003CF900BF1837BD4680BD00BF7C00002010
:100B08000000014080B500AF114B124A1A60104B2B
:100B18004FF4E1325A600E4B00229A600C4B0022CF
:100B2800DA600B4B00221A61094B0C225A61084B00
:100B380000229A61064B0022DA61054802F09EFE07
:100B48000346002B01D000F010F900BF80BD00BFA4
:100B5800C40000200048004080B58AB000AF07F10B
:100B6800140300221A605A609A60DA601A6100233E
:100B78003B61344B1B6B334A43F004031363314B23
:100B88001B6B03F004033B613B690023FB602D4BA7
:100B98001B6B2C4A43F0800313632A4B1B6B03F037
:100BA8008003FB60FB680023BB60264B1B6B254A58
:100BB80043F001031363234B1B6B03F00103BB607A
:100BC800BB6800237B601F4B1B6B1E4A43F002036C
:100BD80013631C4B1B6B03F002037B607B6842F2C0
:100BE800F0037B610023BB610123FB6107F1140360
:100BF8001946154801F050FB01237B614FF404139B
:100C0800BB610123FB6107F1140319460F4801F08A
:100C180043FB02237B610023BB610123FB6107F1D6
:100C280014031946094801F037FB00220121062068
:100C380001F069FA062001F082FA00BF2837BD46A4
:100C480080BD00BF0038024000080240000002409A
:100C580080B500AF0D490E4800F014FC0C4800F0B8
:100C6800F1FC02210A4800F01EFF0A4B12221A600A
:100C7800084B00229A60074B0022DA60054B0822D5
:100C88001A61044B00221A7500BF80BD20010020A4
:100C98002C0000200801002080B500AF0D490E4847
:100CA80000F0F0FB0C4800F0CDFC02210A4800F0EF
:100CB800FAFE0A4BA2221A60084B00229A60074BE0
:100CC8000022DA60054B08221A61044B00221A75CB
:100CD80000BF80BD600100205400002048010020B2
:100CE80080B582B000AF786009E04FF0FF33012291
:100CF8007968074802F00FFE7B6801337B607B68E8
:100D08001B78002BF1D100BF00BF0837BD4680BD5E
:100D1800C400002080B483B000AF7860094B1B8802
:100D28001A46094B1978094B9954064B1B8801330D
:100D38009AB2044B1A8000BF0C37BD465DF8047B9D
:100D4800704700BF880100208C1100208C01002012
:100D580080B582B000AF0346FB80FB88184600F0E0
:100D680071FA00BF0837BD4680BD80B400AF72B6C7
:100D780000BF00BFFDE7000080B483B000AF0023D0
:100D88007B60104B5B6C0F4A43F4804353640D4BFC
:100D98005B6C03F480437B607B6800233B60094BFA
:100DA8001B6C084A43F080531364064B1B6C03F01A
:100DB80080533B603B6800BF0C37BD465DF8047B41
:100DC800704700BF0038024080B58CB000AF786033
:100DD80007F11C0300221A605A609A60DA601A61EF
:100DE8007B681B684A4A93423ED14A4B1B680133D1
:100DF800484A1360474B1B68012B0DD10023BB6188
:100E0800454B1B6C444A43F000731364424B1B6C04
:100E180003F00073BB61BB6900237B613E4B1B6B16
:100E28003D4A43F0010313633B4B1B6B03F0010383
:100E38007B617B694FF4C053FB6102233B62002353
:100E48007B620323BB620923FB6207F11C0319467B
:100E5800324801F021FA00220221142001F053F94E
:100E6800142001F06CF94FE07B681B682C4A934210
:100E78004AD100233B61284B1B6C274A43F080630F
:100E88001364254B1B6C03F080633B613B69214B6A
:100E98001B6801331F4A13601E4B1B68012B0DD1C1
:100EA8000023FB601C4B1B6C1B4A43F0007313644C
:100EB800194B1B6C03F00073FB60FB680023BB60DD
:100EC800154B1B6B144A43F002031363124B1B6B45
:100ED80003F00203BB60BB686023FB6102233B6233
:100EE80000237B620323BB620923FB6207F11C0317
:100EF80019460C4801F0D0F900220221402001F0E7
:100F080002F9402001F01BF900BF3037BD4680BD13
:100F180000640040B8110020003802400000024080
:100F2800006800400004024080B584B000AF7860DB
:100F38007B681B680E4A934215D10023FB600D4B5A
:100F48005B6C0C4A43F0010353640A4B5B6C03F07F
:100F58000103FB60FB6800220321192001F0D3F88C
:100F6800192001F0ECF800BF1037BD4680BD00BF66
:100F7800000001400038024080B58AB000AF7860B8
:100F880007F1140300221A605A609A60DA601A6145
:100F98007B681B681D4A934234D100233B611C4B7C
:100FA8001B6C1B4A43F480231364194B1B6C03F41A
:100FB80080233B613B690023FB60154B1B6B144A84
:100FC80043F004031363124B1B6B03F00403FB6031
:100FD800FB684FF440637B610223BB610023FB6124
:100FE80003233B6207237B6207F114031946094870
:100FF80001F052F900220121272001F084F827206E
:1010080001F09DF800BF2837BD4680BD004800406C
:10101800003802400008024080B400AF00BFFDE77E
:1010280080B400AF00BFFDE780B400AF00BFFDE7AC
:1010380080B400AF00BFFDE780B400AF00BFFDE79C
:1010480080B400AF00BFBD465DF8047B704780B434
:1010580000AF00BFBD465DF8047B704780B400AFA9
:1010680000BFBD465DF8047B7047000080B500AF47
:1010780000F0C8F8034B1B680133024A136000BF35
:1010880080BD00BFB411002080B500AF012001F081
:10109800B7FA00BF80BD000080B500AF024800F07D
:1010A80028FD00BF80BD00BF2C00002080B500AF28
:1010B800024802F021F800BF80BD00BF7C0000207C
:1010C80080B500AF024802F0B9FC00BF80BD00BF88
:1010D800C400002080B500AF024800F00AFD00BF40
:1010E80080BD00BF5400002080B400AF064BD3F889
:1010F8008830054A43F47003C2F8883000BFBD4603
:101108005DF8047B704700BF00ED00E0DFF834D0E5
:101118000D480E490E4A002302E0D458C450043347
:10112800C4188C42F9D30B4A0B4C002301E013601E
:101138000432A242FBD3FFF7D7FF03F0B1FBFFF75E
:10114800E9FA70470000022000000020100000208B
:101158006049000810000020C0110020FEE70000D0
:1011680080B500AF0E4B1B680D4A43F40073136043
:101178000B4B1B680A4A43F480631360084B1B68D7
:10118800074A43F480731360032000F0B1FF002086
:1011980000F008F8FFF7F0FD0023184680BD00BFF7
:1011A800003C024080B582B000AF7860124B1A68EC
:1011B800124B1B7819464FF47A73B3FBF1F3B2FB69
:1011C800F3F3184600F0C9FF0346002B01D00123B2
:1011D8000EE07B680F2B0AD8002279684FF0FF30A9
:1011E80000F091FF064A7B681360002300E00123AA
:1011F80018460837BD4680BD040000200C000020BA
:101208000800002080B400AF064B1B781A46064B36
:101218001B681344044A136000BFBD465DF8047B95
:10122800704700BF0C000020BC11002080B400AF44
:10123800034B1B681846BD465DF8047B704700BF2A
:10124800BC11002080B584B000AF7860FFF7EEFFD6
:10125800B8607B68FB60FB68B3F1FF3F05D00A4BC1
:101268001B781A46FB681344FB6000BFFFF7DEFFDC
:101278000246BB68D31AFA689A42F7D800BF00BF83
:101288001037BD4680BD00BF0C00002080B584B07B
:1012980000AF78607B68002B01D10123EDE07B680B
:1012A80093F82030DBB2002B02D17868FFF78CFD71
:1012B8007B681B681A687B681B6842F001021A6029
:1012C800FFF7B4FFF86012E0FFF7B0FF0246FB68D3
:1012D800D31A0A2B0BD97B685B6A43F400327B680C
:1012E8005A627B68052283F820200123C5E07B68C9
:1012F8001B685B6803F00103002BE5D07B681B6863
:101308001A687B681B6822F002021A60FFF78EFFDA
:10131800F86012E0FFF78AFF0246FB68D31A0A2B2F
:101328000BD97B685B6A43F400327B685A627B683E
:10133800052283F8202001239FE07B681B685B68F7
:1013480003F00203002BE5D17B681B7E012B08D13B
:101358007B681B681A687B681B6842F080021A6009
:1013680007E07B681B681A687B681B6822F08002AC
:101378001A607B685B7E012B08D17B681B681A6842
:101388007B681B6842F040021A6007E07B681B68B4
:101398001A687B681B6822F040021A607B689B7E93
:1013A800012B08D17B681B681A687B681B6842F0B0
:1013B80020021A6007E07B681B681A687B681B6854
:1013C80022F020021A607B68DB7E012B08D17B6843
:1013D8001B681A687B681B6822F010021A6007E015
:1013E8007B681B681A687B681B6842F010021A60E9
:1013F8007B681B7F012B08D17B681B681A687B6898
:101408001B6842F008021A6007E07B681B681A68CC
:101418007B681B6822F008021A607B685B7F012BDF
:1014280008D17B681B681A687B681B6842F0040255
:101438001A6007E07B681B681A687B681B6822F0E3
:1014480004021A607B689A687B68DB681A437B68C9
:101458001B691A437B685B6942EA03017B685B6826
:101468005A1E7B681B680A43DA617B6800225A624D
:101478007B68012283F82020002318461037BD46D8
:1014880080BD000080B487B000AF786039607B68A9
:101498001B687B617B6893F82030FB74FB7C012B15
:1014A80003D0FB7C022B40F0BE80654B7B617B69DF
:1014B800D3F8003243F001027B69C3F800227B694C
:1014C800D3F8003223F47C527B69C3F800227B698D
:1014D800D3F800223B685B6A1B021A437B69C3F896
:1014E80000223B685B6903F01F03012202FA03F341
:1014F800FB607B69D3F81C22FB68DB431A407B69DD
:10150800C3F81C223B68DB69002B23D17B69D3F825
:101518000C22FB68DB431A407B69C3F80C223B684A
:10152800DB6819043B685B689BB23A6852691943E7
:101538007B69483243F832103B689B6819043B6862
:101548001B689AB23B685B690A4379694833DB00D8
:101558000B445A603B68DB69012B22D17B69D3F8C5
:101568000C22FB681A437B69C3F80C223B681B6892
:1015780019043B685B689BB23A68526919437B69F6
:10158800483243F832103B689B6819043B68DB68B3
:101598009AB23B685B690A4379694833DB000B44BC
:1015A8005A603B689B69002B09D17B69D3F80422F8
:1015B800FB68DB431A407B69C3F8042207E07B69B8
:1015C800D3F80422FB681A437B69C3F804223B68FA
:1015D8001B69002B09D17B69D3F81422FB68DB4314
:1015E8001A407B69C3F8142207E07B69D3F81422F8
:1015F800FB681A437B69C3F814223B681B6A012BFA
:1016080007D17B69D3F81C22FB681A437B69C3F8AE
:101618001C227B69D3F8003223F001027B69C3F8EE
:101628000022002306E07B685B6A43F480227B6823
:101638005A62012318461C37BD465DF8047B704783
:101648000064004080B584B000AF78607B6893F890
:101658002030DBB2012B2ED17B68022283F82020B8
:101668007B681B681A687B681B6822F001021A6095
:10167800FFF7DCFDF86012E0FFF7D8FD0246FB68D3
:10168800D31A0A2B0BD97B685B6A43F400327B6858
:101698005A627B68052283F82020012312E07B68C8
:1016A8001B685B6803F00103002BE5D17B6800220F
:1016B8005A62002306E07B685B6A43F400227B6879
:1016C8005A62012318461037BD4680BD80B489B0E0
:1016D80000AFF860B9607A603B60FB6893F820302F
:1016E800FB77FB681B689B68BB61FB7F012B03D002
:1016F800FB7F022B40F0B880BB6903F08063002BAE
:101708000AD1BB6903F00063002B05D1BB6903F064
:101718008053002B00F0A080BB691B0E03F003036D
:101728007B617B69022B07D9FB685B6A43F4000283
:10173800FB685A6201239EE001227B699A403B685C
:101748001A60BB689B68002B0DD1BB681B685A05E3
:10175800BB68DB68F96809681A437B6918331B01A1
:101768000B441A600FE0BB685B68DA00BB689B68D3
:101778001A43BB68DB68F96809681A437B69183340
:101788001B010B441A60FB681968BB681A697B69FE
:1017980018331B010B4404331A60BB681B7D012BF3
:1017A80011D1FB681A687B6918331B011344043391
:1017B8001B68FA68116843F480727B6918331B014F
:1017C8000B4404331A607B6807331B781A067B685E
:1017D80006331B781B041A437B6805331B781B02EE
:1017E80013437A68043212781046FA68116843EA9B
:1017F80000027B691B010B4403F5C6731A607B6802
:1018080003331B781A067B6802331B781B041A43C0
:101818007B6801331B781B0213437A6812781046E1
:10182800FA68116843EA00027B691B010B4403F55F
:10183800C4731A60FB681A687B6918331B01134468
:101848001B68FA68116843F001027B6918331B01B1
:101858000B441A6000230EE0FB685B6A43F4001235
:10186800FB685A62012306E0FB685B6A43F4802246
:10187800FB685A62012318462437BD465DF8047B8D
:10188800704780B487B000AFF860B9607A603B6099
:10189800FB6893F82030FB75FB7D012B03D0FB7DA3
:1018A800022B40F0F380BB68002B0ED1FB681B684D
:1018B800DB6803F00303002B16D1FB685B6A43F473
:1018C8000012FB685A620123E7E0FB681B681B698A
:1018D80003F00303002B07D1FB685B6A43F4001293
:1018E800FB685A620123D8E0FB681A68BB681B339F
:1018F8001B0113441B6803F004027B689A607B6831
:101908009B68002B0CD1FB681A68BB681B331B0152
:1019180013441B685B0DC3F30A027B681A600BE073
:10192800FB681A68BB681B331B0113441B68DB0880
:1019380023F060427B685A60FB681A68BB681B33F7
:101948001B0113441B6803F002027B68DA60FB6822
:101958001A68BB681B331B01134404331B6803F06C
:101968000F027B681A61FB681A68BB681B331B018E
:10197800134404331B681B0ADAB27B689A61FB685C
:101988001A68BB681B331B01134404331B681B0C08
:101998009AB27B685A61FB681A68BB681B011344DA
:1019A80003F5DC731B68DAB23B681A70FB681A68C7
:1019B800BB681B01134403F5DC731B681A0A3B68F8
:1019C8000133D2B21A70FB681A68BB681B01134452
:1019D80003F5DC731B681A0C3B680233D2B21A7029
:1019E800FB681A68BB681B01134403F5DC731B68AA
:1019F8001A0E3B680333D2B21A70FB681A68BB68C8
:101A08001B01134403F5DE731A683B680433D2B232
:101A18001A70FB681A68BB681B01134403F5DE7370
:101A28001B681A0A3B680533D2B21A70FB681A6839
:101A3800BB681B01134403F5DE731B681A0C3B6873
:101A48000633D2B21A70FB681A68BB681B011344CC
:101A580003F5DE731B681A0E3B680733D2B21A709F
:101A6800BB68002B08D1FB681B68DA68FB681B6839
:101A780042F02002DA6007E0FB681B681A69FB681D
:101A88001B6842F020021A61002306E0FB685B6ACB
:101A980043F48022FB685A62012318461C37BD466E
:101AA8005DF8047B704780B485B000AF786039601A
:101AB8007B6893F82030FB73FB7B012B02D0FB7B08
:101AC800022B09D17B681B6859697B681B683A68D7
:101AD8000A435A61002306E07B685B6A43F480226C
:101AE8007B685A62012318461437BD465DF8047BAB
:101AF800704780B58AB000AF786000237B627B684E
:101B08001B685B693B627B681B685B68FB617B6881
:101B18001B689B68BB617B681B68DB687B617B68B3
:101B28001B681B693B617B681B689B69FB603B6AA0
:101B380003F00103002B7CD0BB6903F00103002BE9
:101B480023D07B681B6801229A60BB6903F00203FB
:101B5800002B03D0786800F083F916E0BB6903F026
:101B68000403002B04D07B6A43F400637B620CE01F
:101B7800BB6903F00803002B04D07B6A43F480534D
:101B88007B6202E0786800F089F9BB6903F480732E
:101B9800002B24D07B681B684FF480729A60BB6965
:101BA80003F40073002B03D0786800F063F916E0A3
:101BB800BB6903F48063002B04D07B6A43F40053B1
:101BC8007B620CE0BB6903F40063002B04D07B6AE2
:101BD80043F480437B6202E0786800F069F9BB69EE
:101BE80003F48033002B24D07B681B684FF48032C9
:101BF8009A60BB6903F40033002B03D0786800F0C7
:101C080043F916E0BB6903F48023002B04D07B6AF8
:101C180043F400437B620CE0BB6903F40023002B10
:101C280004D07B6A43F480337B6202E0786800F07A
:101C380049F93B6A03F00803002B0CD07B6903F0D9
:101C48001003002B07D07B6A43F400737B627B6828
:101C58001B681022DA603B6A03F00403002B0BD0E8
:101C68007B6903F00803002B06D07B681B680822F9
:101C7800DA60786800F030F93B6A03F00203002B61
:101C880009D07B681B68DB6803F00303002B02D0D4
:101C98007868FEF7C5FC3B6A03F04003002B0CD0C4
:101CA8003B6903F01003002B07D07B6A43F4806381
:101CB8007B627B681B6810221A613B6A03F0200371
:101CC800002B0BD03B6903F00803002B06D07B6880
:101CD8001B6808221A61786800F012F93B6A03F061
:101CE8001003002B09D07B681B681B6903F00303F2
:101CF800002B02D0786800F0F9F83B6A03F400334F
:101D0800002B0BD0FB6903F01003002B06D07B6877
:101D18001B6810225A60786800F0FCF83B6A03F4EC
:101D28008033002B0BD0FB6903F00803002B06D08F
:101D38007B681B6808225A60786800F0F5F83B6AEF
:101D480003F40043002B7BD0FB6903F00403002B52
:101D580072D03B6A03F48073002B08D0FB6803F051
:101D68000103002B03D07B6A43F001037B623B6ACB
:101D780003F40073002B08D0FB6803F00203002B68
:101D880003D07B6A43F002037B623B6A03F48063FF
:101D9800002B08D0FB6803F00403002B03D07B6AF8
:101DA80043F004037B623B6A03F40063002B43D0D7
:101DB800FB6803F07003002B3ED0FB6803F0700350
:101DC800602B2BD0602B2ED8502B22D0502B2AD80A
:101DD800402B19D0402B26D8302B10D0302B22D8AE
:101DE800102B02D0202B05D01DE07B6A43F008039E
:101DF8007B6219E07B6A43F010037B6214E07B6A24
:101E080043F020037B620FE07B6A43F040037B6270
:101E18000AE07B6A43F080037B6205E07B6A43F457
:101E280080737B6200E000BF7B681B689A697B68EF
:101E38001B6822F070029A617B681B6804225A6052
:101E48007B6A002B08D07B685A6A7B6A1A437B68D6
:101E58005A62786800F072F800BF2837BD4680BD26
:101E680080B483B000AF786000BF0C37BD465DF822
:101E7800047B704780B483B000AF786000BF0C3734
:101E8800BD465DF8047B704780B483B000AF7860CE
:101E980000BF0C37BD465DF8047B704780B483B043
:101EA80000AF786000BF0C37BD465DF8047B704713
:101EB80080B483B000AF786000BF0C37BD465DF8D2
:101EC800047B704780B483B000AF786000BF0C37E4
:101ED800BD465DF8047B704780B483B000AF78607E
:101EE80000BF0C37BD465DF8047B704780B483B0F3
:101EF80000AF786000BF0C37BD465DF8047B7047C3
:101F080080B483B000AF786000BF0C37BD465DF881
:101F1800047B704780B483B000AF786000BF0C3793
:101F2800BD465DF8047B704780B483B000AF78602D
:101F380000BF0C37BD465DF8047B704780B483B0A2
:101F480000AF786000BF0C37BD465DF8047B704772
:101F580080B485B000AF78607B6803F00703FB604E
:101F68000C4BDB68BB60BA684FF6FF031340BB60DD
:101F7800FB681A02BB68134343F0BF6343F40033A2
:101F8800BB60044ABB68D36000BF1437BD465DF828
:101F9800047B704700ED00E080B400AF044BDB68C1
:101FA8001B0A03F007031846BD465DF8047B70471B
:101FB80000ED00E080B483B000AF0346FB7197F9F1
:101FC8000730002B0BDBFB7903F01F02074997F959
:101FD80007305B09012000FA02F241F8232000BF14
:101FE8000C37BD465DF8047B704700BF00E100E098
:101FF80080B483B000AF03463960FB7197F90730AE
:10200800002B0ADB3B68DAB20C4997F9073012015A
:10201800D2B20B4483F800230AE03B68DAB20849DD
:10202800FB7903F00F03043B1201D2B20B441A767A
:1020380000BF0C37BD465DF8047B704700E100E047
:1020480000ED00E080B489B000AFF860B9607A6054
:10205800FB6803F00703FB61FB69C3F10703042B6B
:1020680028BF0423BB61FB690433062B02D9FB6933
:10207800033B00E000237B614FF0FF32BB6902FAAB
:1020880003F3DA43BB681A407B699A404FF0FF318B
:102098007B6901FA03F3D9437B680B401343184665
:1020A8002437BD465DF8047B7047000080B582B0D8
:1020B80000AF78607B68013BB3F1807F01D30123D7
:1020C8000FE00A4A7B68013B53600F214FF0FF3055
:1020D800FFF78EFF054B00229A60044B07221A6017
:1020E800002318460837BD4680BD00BF10E000E059
:1020F80080B582B000AF78607868FFF729FF00BF2D
:102108000837BD4680BD80B586B000AF0346B960CC
:102118007A60FB7300237B61FFF73EFF78617A6882
:10212800B9687869FFF78EFF024697F90F301146B4
:102138001846FFF75DFF00BF1837BD4680BD80B564
:1021480082B000AF0346FB7197F907301846FFF7D6
:1021580031FF00BF0837BD4680BD80B582B000AFF3
:1021680078607868FFF7A2FF034618460837BD462F
:1021780080BD80B584B000AF78607B689B6DFB60E4
:10218800FFF754F8B8607B6893F83530DBB2022B60
:1021980008D07B6880225A657B68002283F8342047
:1021A800012352E07B681B681A687B681B6822F071
:1021B80016021A607B681B685A697B681B6822F0E4
:1021C80080025A617B681B6C002B03D17B689B6C77
:1021D800002B07D07B681B681A687B681B6822F095
:1021E80008021A607B681B681A687B681B6822F003
:1021F80001021A6013E0FFF719F80246BB68D31A08
:10220800052B0CD97B6820225A657B68032283F84A
:1022180035207B68002283F83420032315E07B688F
:102228001B681B6803F00103002BE4D17B68DB6D9E
:102238003F229A40FB689A607B68012283F8352028
:102248007B68002283F83420002318461037BD46E7
:1022580080BD80B483B000AF78607B6893F8353078
:10226800DBB2022B04D07B6880225A6501230CE084
:102278007B68052283F835207B681B681A687B68B1
:102288001B6822F001021A60002318460C37BD466D
:102298005DF8047B7047000080B489B000AF7860B7
:1022A800396000237B6100233B610023BB6100236D
:1022B800FB616BE10122FB6902FA03F37B613B6876
:1022C8001B687A6913403B613A697B699A4240F01E
:1022D8005A813B685B6803F00303012B05D03B6818
:1022E8005B6803F00303022B30D17B689B68BB61FA
:1022F800FB695B00032202FA03F3DB43BA6913406C
:10230800BB613B68DA68FB695B0002FA03F3BA69F0
:102318001343BB617B68BA699A607B685B68BB6181
:102328000122FB6902FA03F3DB43BA691340BB617C
:102338003B685B681B0903F00102FB6902FA03F3BF
:10234800BA691343BB617B68BA695A603B685B68CA
:1023580003F00303032B17D07B68DB68BB61FB69C1
:102368005B00032202FA03F3DB43BA691340BB6143
:102378003B689A68FB695B0002FA03F3BA69134386
:10238800BB617B68BA69DA603B685B6803F003038A
:10239800022B23D1FB69DA087B68083253F8223014
:1023A800BB61FB6903F007039B000F2202FA03F3EA
:1023B800DB43BA691340BB613B681A69FB6903F0E8
:1023C80007039B0002FA03F3BA691343BB61FB6975
:1023D800DA087B680832B96943F822107B681B6801
:1023E800BB61FB695B00032202FA03F3DB43BA69B2
:1023F8001340BB613B685B6803F00302FB695B0049
:1024080002FA03F3BA691343BB617B68BA691A60BD
:102418003B685B6803F44033002B00F0B480002372
:10242800FB60604B5B6C5F4A43F4804353645D4BD5
:102438005B6C03F48043FB60FB685B4AFB699B08A9
:10244800023352F82330BB61FB6903F003039B009E
:102458000F2202FA03F3DB43BA691340BB617B68BE
:10246800524A93422BD07B68514A934225D07B68CD
:10247800504A93421FD07B684F4A934219D07B68D9
:102488004E4A934213D07B684D4A93420DD07B68E5
:102498004C4A934207D07B684B4A934201D10723A9
:1024A8000EE008230CE006230AE0052308E00423D5
:1024B80006E0032304E0022302E0012300E00023F6
:1024C800FA6902F0030292009340BA691343BB61B0
:1024D8003549FB699B080233BA6941F823203B4B15
:1024E8009B68BB613B69DB43BA691340BB613B68CE
:1024F8005B6803F48013002B03D0BA693B6913436C
:10250800BB61324ABB699360304BDB68BB613B6996
:10251800DB43BA691340BB613B685B6803F4001393
:10252800002B03D0BA693B691343BB61274ABB69D7
:10253800D360264B5B68BB613B69DB43BA691340D8
:10254800BB613B685B6803F40033002B03D0BA69B6
:102558003B691343BB611D4ABB6953601B4B1B6836
:10256800BB613B69DB43BA691340BB613B685B688D
:1025780003F48033002B03D0BA693B691343BB6172
:10258800124ABB691360FB690133FB61FB690F2BBE
:102598007FF690AE00BF00BF2437BD465DF8047BD0
:1025A800704700BF00380240003801400000024078
:1025B8000004024000080240000C024000100240E3
:1025C8000014024000180240001C0240003C014078
:1025D80080B485B000AF78600B467B807B681A6951
:1025E8007B881340002B02D00123FB7301E00023FA
:1025F800FB73FB7B18461437BD465DF8047B7047B8
:1026080080B582B000AF0346FB80084B5A69FB884F
:102618001340002B06D0054AFB885361FB881846F7
:1026280000F006F800BF0837BD4680BD003C0140F9
:1026380080B483B000AF0346FB8000BF0C37BD46B3
:102648005DF8047B7047000080B586B000AF786005
:102658007B68002B01D1012367E27B681B6803F0CC
:102668000103002B75D0884B9B6803F00C03042BE7
:102678000CD0854B9B6803F00C03082B12D1824BBE
:102688005B6803F48003B3F5800F0BD17E4B1B68A6
:1026980003F40033002B5BD07B685B68002B57D1B9
:1026A800012342E27B685B68B3F5803F06D1764B35
:1026B8001B68754A43F4803313601DE07B685B68D0
:1026C800B3F5A02F0CD1704B1B686F4A43F48023DD
:1026D80013606D4B1B686C4A43F4803313600BE046
:1026E800694B1B68684A23F480331360664B1B6888
:1026F800654A23F4802313607B685B68002B13D042
:10270800FEF794FD386108E0FEF790FD02463B694C
:10271800D31A642B01D9032307E25B4B1B6803F42C
:102728000033002BF0D014E0FEF780FD386108E09C
:10273800FEF77CFD02463B69D31A642B01D90323BB
:10274800F3E1514B1B6803F40033002BF0D100E098
:1027580000BF7B681B6803F00203002B63D04A4B61
:102768009B6803F00C03002B0BD0474B9B6803F0CE
:102778000C03082B1CD1444B5B6803F48003002B2B
:1027880016D1414B1B6803F00203002B05D07B6870
:10279800DB68012B01D00123C7E13B4B1B6823F009
:1027A800F8027B681B69DB00374913430B603AE08A
:1027B8007B68DB68002B20D0344B01221A60FEF7BF
:1027C80035FD386108E0FEF731FD02463B69D31A52
:1027D800022B01D90323A8E12B4B1B6803F002034A
:1027E800002BF0D0284B1B6823F0F8027B681B698C
:1027F800DB00254913430B6015E0244B00221A60C7
:10280800FEF714FD386108E0FEF710FD02463B694B
:10281800D31A022B01D9032387E11B4B1B6803F052
:102828000203002BF0D17B681B6803F00803002B20
:1028380036D07B685B69002B16D0154B01221A60D5
:10284800FEF7F4FC386108E0FEF7F0FC02463B694D
:10285800D31A022B01D9032367E10B4B5B6F03F0FB
:102868000203002BF0D01BE0094B00221A60FEF790
:10287800DDFC38610EE0FEF7D9FC02463B69D31A4D
:10288800022B07D9032350E10038024000004742D9
:10289800800E4742884B5B6F03F00203002BEAD19E
:1028A8007B681B6803F00403002B00F0978000236B
:1028B800FB75814B1B6C03F08053002B0FD1002359
:1028C800BB607D4B1B6C7C4A43F0805313647A4B8E
:1028D8001B6C03F08053BB60BB680123FB75774B0F
:1028E8001B6803F48073002B18D1744B1B68734A60
:1028F80043F480731360FEF799FC386108E0FEF733
:1029080095FC02463B69D31A022B01D903230CE13B
:102918006A4B1B6803F48073002BF0D07B689B68BC
:10292800012B06D1644B1B6F634A43F00103136705
:102938001CE07B689B68052B0CD15F4B1B6F5E4AC4
:1029480043F0040313675C4B1B6F5B4A43F00103BE
:1029580013670BE0584B1B6F574A23F001031367AB
:10296800554B1B6F544A23F0040313677B689B681D
:10297800002B15D0FEF75AFC38610AE0FEF756FC2A
:1029880002463B69D31A41F28832934201D90323A4
:10299800CBE0494B1B6F03F00203002BEED014E091
:1029A800FEF744FC38610AE0FEF740FC02463B694A
:1029B800D31A41F28832934201D90323B5E03E4B42
:1029C8001B6F03F00203002BEED1FB7D012B05D119
:1029D800394B1B6C384A23F0805313647B689B691E
:1029E800002B00F0A180344B9B6803F00C03082BEC
:1029F8005CD07B689B69022B41D1314B00221A6065
:102A0800FEF714FC386108E0FEF710FC02463B694B
:102A1800D31A022B01D9032387E0274B1B6803F045
:102A28000073002BF0D17B68DA697B681B6A1A4354
:102A38007B685B6A9B011A437B689B6A5B08013B66
:102A48001B041A437B68DB6A1B061B4913434B6054
:102A58001B4B01221A60FEF7E9FB386108E0FEF71C
:102A6800E5FB02463B69D31A022B01D903235CE03C
:102A7800114B1B6803F00073002BF0D054E0104B8F
:102A880000221A60FEF7D2FB386108E0FEF7CEFBA1
:102A980002463B69D31A022B01D9032345E0064BB2
:102AA8001B6803F00073002BF0D13DE07B689B6945
:102AB800012B07D1012338E00038024000700040A4
:102AC800600047421B4B5B68FB607B689B69012B7E
:102AD80028D0FB6803F480027B68DB699A4221D125
:102AE800FB6803F03F027B681B6A9A421AD1FA68B6
:102AF80047F6C07313407A68526A9201934211D123
:102B0800FB6803F440327B689B6A5B08013B1B044B
:102B18009A4207D1FB6803F070627B68DB6A1B0688
:102B28009A4201D0012300E0002318461837BD4619
:102B380080BD00BF0038024080B584B000AF786027
:102B480039607B68002B01D10123CCE0684B1B68FE
:102B580003F007033A689A420CD9654B3A68D2B237
:102B68001A70634B1B6803F007033A689A4201D056
:102B78000123B8E07B681B6803F00203002B20D018
:102B88007B681B6803F00403002B05D0594B9B6836
:102B9800584A43F4E05393607B681B6803F00803CA
:102BA800002B05D0534B9B68524A43F46043936013
:102BB800504B9B6823F0F0027B689B684D49134398
:102BC8008B607B681B6803F00103002B44D07B6893
:102BD8005B68012B07D1474B1B6803F40033002BBC
:102BE80019D101237FE07B685B68022B03D07B68E7
:102BF8005B68032B07D13F4B1B6803F00073002B66
:102C080009D101236FE03B4B1B6803F00203002B43
:102C180001D1012367E0374B9B6823F003027B68EF
:102C28005B68344913438B60FEF700FBF8600AE0E9
:102C3800FEF7FCFA0246FB68D31A41F28832934247
:102C480001D903234FE02B4B9B6803F00C027B68F0
:102C58005B689B009A42EBD1254B1B6803F0070386
:102C68003A689A420CD2224B3A68D2B21A70204B78
:102C78001B6803F007033A689A4201D0012332E047
:102C88007B681B6803F00403002B08D0194B9B6872
:102C980023F4E0527B68DB68164913438B607B683A
:102CA8001B6803F00803002B09D0124B9B6823F420
:102CB80060427B681B69DB000E4913438B6000F0A0
:102CC80021F802460B4B9B681B0903F00F030A49C6
:102CD800CB5C22FA03F3094A1360094B1B681846B8
:102CE800FEF760FA002318461037BD4680BD00BFC6
:102CF800003C024000380240384900080400002027
:102D0800080000202DE9B04F94B000AF00237B6489
:102D18000023FB6400233B640023BB64794B9B685E
:102D280003F00C03082B0DD0082B00F2E180002BD8
:102D380002D0042B03D0DBE0734BBB64DBE0734BA6
:102D4800BB64D8E06F4B5B6803F03F037B646D4B5B
:102D58005B6803F48003002B63D06A4B5B689B09B4
:102D68000022BB63FA63BB6BC3F308033B63002316
:102D78007B63D7E90C4522462B464FF000004FF005
:102D88000001590141EAD261500102460B46214631
:102D9800511A3961294663EB01037B614FF0000248
:102DA8004FF00003D7E904AB59468B01514643EA7B
:102DB800916351468A015146B2EB0108594663EBCB
:102DC80001094FF000024FF000034FEAC90343EA3C
:102DD80058734FEAC80290469946234618EB0303F6
:102DE800BB602B4649EB0303FB604FF000024FF03A
:102DF8000003D7E9024529464B02214643EAD1534D
:102E080021464A02104619467B6C0022BB62FA62D0
:102E1800D7E90A23FDF7D4F902460B461346FB64AB
:102E280058E0384B5B689B09002218461146C0F3EE
:102E380008033B6200237B62D7E9088942464B4678
:102E48004FF000004FF00001590141EAD2615001F2
:102E580002460B464146B2EB010A494663EB010BB9
:102E68004FF000024FF000034FEA8B1343EA9A63D6
:102E78004FEA8A12B2EB0A0463EB0B054FF000022B
:102E88004FF00003EB0043EA5473E20014461D467A
:102E98004346E3183B604B4645EB03037B604FF02A
:102EA80000024FF00003D7E9004529468B0221466E
:102EB80043EA915321468A02104619467B6C002248
:102EC800BB61FA61D7E90623FDF77AF902460B469A
:102ED8001346FB640B4B5B681B0C03F003030133C5
:102EE8005B003B64FA6C3B6CB2FBF3F3BB6402E03F
:102EF800054BBB6400BFBB6C18465037BD46BDE8E8
:102F0800B08F00BF003802400024F40000127A009D
:102F180080B400AF034B1B681846BD465DF8047BC0
:102F2800704700BF0400002080B500AFFFF7F0FF36
:102F38000246054B9B689B0A03F007030349CB5CD9
:102F480022FA03F3184680BD0038024048490008B9
:102F580080B500AFFFF7DCFF0246054B9B685B0BB3
:102F680003F007030349CB5C22FA03F3184680BD3C
:102F7800003802404849000880B582B000AF786048
:102F88007B68002B01D1012341E07B6893F83D3039
:102F9800DBB2002B06D17B68002283F83C207868DE
:102FA800FDF7C2FF7B68022283F83D207B681A6820
:102FB8007B6804331946104600F096FA7B680122B4
:102FC80083F846207B68012283F83E207B68012233
:102FD80083F83F207B68012283F840207B68012228
:102FE80083F841207B68012283F842207B68012214
:102FF80083F843207B68012283F844207B68012200
:1030080083F845207B68012283F83D200023184679
:103018000837BD4680BD000080B485B000AF786039
:103028007B6893F83D30DBB2012B01D001234EE0E1
:103038007B68022283F83D207B681B68DA687B681E
:103048001B6842F00102DA607B681B68234A9342DE
:1030580022D07B681B68B3F1804F1DD07B681B684A
:103068001F4A934218D07B681B681E4A934213D0AC
:103078007B681B681C4A93420ED07B681B681B4AFE
:10308800934209D07B681B68194A934204D07B6835
:103098001B68184A934211D17B681B689B6803F030
:1030A8000703FB60FB68062B10D07B681B681A6857
:1030B8007B681B6842F001021A6007E07B681B68A6
:1030C8001A687B681B6842F001021A6000231846E0
:1030D8001437BD465DF8047B704700BF000001400F
:1030E8000004004000080040000C004000040140BB
:1030F800004001400018004080B582B000AF786001
:103108007B681B681B6903F00203022B22D17B68D2
:103118001B68DB6803F00203022B1BD17B681B686A
:103128006FF002021A617B6801221A777B681B68BC
:103138009B6903F00303002B03D0786800F0B5F90E
:1031480005E0786800F0A7F9786800F0B8F97B68BE
:1031580000221A777B681B681B6903F00403042BA1
:1031680022D17B681B68DB6803F00403042B1BD1A6
:103178007B681B686FF004021A617B6802221A7769
:103188007B681B689B6903F44073002B03D0786845
:1031980000F08BF905E0786800F07DF9786800F0B8
:1031A8008EF97B6800221A777B681B681B6903F01D
:1031B8000803082B22D17B681B68DB6803F008032F
:1031C800082B1BD17B681B686FF008021A617B68AB
:1031D80004221A777B681B68DB6903F00303002B62
:1031E80003D0786800F061F905E0786800F053F9D9
:1031F800786800F064F97B6800221A777B681B689E
:103208001B6903F01003102B22D17B681B68DB6855
:1032180003F01003102B1BD17B681B686FF01002A2
:103228001A617B6808221A777B681B68DB6903F4DC
:103238004073002B03D0786800F037F905E0786810
:1032480000F029F9786800F03AF97B6800221A77CB
:103258007B681B681B6903F00103012B0ED17B6897
:103268001B68DB6803F00103012B07D17B681B682F
:103278006FF001021A617868FDF732FA7B681B6803
:103288001B6903F08003802B0ED17B681B68DB6809
:1032980003F08003802B07D17B681B686FF08002E6
:1032A8001A61786800F0E0FA7B681B681B6903F014
:1032B8004003402B0ED17B681B68DB6803F040039A
:1032C800402B07D17B681B686FF040021A61786851
:1032D80000F0FFF87B681B681B6903F02003202BB4
:1032E8000ED17B681B68DB6803F02003202B07D115
:1032F8007B681B686FF020021A61786800F0AAFAF0
:1033080000BF0837BD4680BD80B584B000AF786087
:1033180039600023FB737B6893F83C30012B01D1A3
:103328000223B4E07B68012283F83C207B680222F8
:1033380083F83D207B681B689B68BB60BB6823F0F3
:103348007703BB60BB6823F47F43BB607B681B6863
:10335800BA689A603B681B68B3F5005F3ED0B3F566
:10336800005F00F28780B3F5805F00F08680B3F5D8
:10337800805F7FD8702B1AD0702B7BD8602B50D0F1
:10338800602B77D8502B3CD0502B73D8402B58D07B
:10339800402B6FD8302B64D0302B6BD8202B60D0CB
:1033A800202B67D8002B5CD0102B5AD062E07B68AA
:1033B80018683B6899683B685A683B68DB6800F0A6
:1033C800ADF97B681B689B68BB60BB6843F07703FB
:1033D800BB607B681B68BA689A604FE07B681868B6
:1033E8003B6899683B685A683B68DB6800F096F967
:1033F8007B681B689A687B681B6842F480429A6005
:103408003CE07B6818683B6859683B68DB681A468B
:1034180000F00AF97B681B685021184600F063F930
:103428002CE07B6818683B6859683B68DB681A467B
:1034380000F029F97B681B686021184600F053F9F1
:103448001CE07B6818683B6859683B68DB681A466B
:1034580000F0EAF87B681B684021184600F043F941
:103468000CE07B681A683B681B681946104600F038
:103478003AF903E00123FB7300E000BF7B680122F7
:1034880083F83D207B68002283F83C20FB7B1846AC
:103498001037BD4680BD80B483B000AF786000BFF0
:1034A8000C37BD465DF8047B704780B483B000AF2D
:1034B800786000BF0C37BD465DF8047B704780B468
:1034C80083B000AF786000BF0C37BD465DF8047B61
:1034D800704780B483B000AF786000BF0C37BD463A
:1034E8005DF8047B7047000080B485B000AF786059
:1034F80039607B681B68FB607B68404A934213D045
:103508007B68B3F1804F0FD07B683D4A93420BD064
:103518007B683C4A934207D07B683B4A934203D07E
:103528007B683A4A934208D1FB6823F07003FB603A
:103538003B685B68FA681343FB607B682F4A9342D9
:103548002BD07B68B3F1804F27D07B682C4A9342FD
:1035580023D07B682B4A93421FD07B682A4A934228
:103568001BD07B68294A934217D07B68284A93422C
:1035780013D07B68274A93420FD07B68264A934230
:103588000BD07B68254A934207D07B68244A934234
:1035980003D07B68234A934208D1FB6823F4407325
:1035A800FB603B68DB68FA681343FB60FB6823F049
:1035B80080023B685B691343FB607B68FA681A60AA
:1035C8003B689A687B68DA623B681A687B689A622B
:1035D8007B680A4A934203D07B680C4A934203D122
:1035E8003B681A697B681A637B6801225A6100BFCD
:1035F8001437BD465DF8047B704700BF00000140EA
:103608000004004000080040000C00400004014095
:1036180000400140004401400048014000180040BB
:10362800001C00400020004080B487B000AFF86064
:10363800B9607A60FB681B6A7B61FB681B6A23F0D0
:103648000102FB681A62FB689B693B613B6923F0D6
:10365800F0033B617B681B013A6913433B617B695B
:1036680023F00A037B617A69BB6813437B61FB68BB
:103678003A699A61FB687A691A6200BF1C37BD46CD
:103688005DF8047B704780B487B000AFF860B9601C
:103698007A60FB681B6A23F01002FB681A62FB68F9
:1036A8009B697B61FB681B6A3B617B6923F4704300
:1036B8007B617B681B037A6913437B613B6923F059
:1036C800A0033B61BB681B013A6913433B61FB687C
:1036D8007A699A61FB683A691A6200BF1C37BD466D
:1036E8005DF8047B704780B485B000AF78603960BE
:1036F8007B689B68FB60FB6823F07003FB603A689B
:10370800FB68134343F00703FB607B68FA689A6021
:1037180000BF1437BD465DF8047B704780B487B09E
:1037280000AFF860B9607A603B60FB689B687B61BA
:103738007B6923F47F437B613B681A027B681A43E9
:10374800BB6813437A6913437B61FB687A699A60A3
:1037580000BF1C37BD465DF8047B704780B485B058
:1037680000AF786039607B6893F83C30012B01D159
:1037780002235AE07B68012283F83C207B680222FE
:1037880083F83D207B681B685B68FB607B681B686F
:103798009B68BB60FB6823F07003FB603B681B6899
:1037A800FA681343FB607B681B68FA685A607B6899
:1037B8001B68214A934222D07B681B68B3F1804F73
:1037C8001DD07B681B681D4A934218D07B681B6814
:1037D8001B4A934213D07B681B681A4A93420ED047
:1037E8007B681B68184A934209D07B681B68174A94
:1037F800934204D07B681B68154A93420CD1BB687E
:1038080023F08003BB603B685B68BA681343BB6006
:103818007B681B68BA689A607B68012283F83D2040
:103828007B68002283F83C20002318461437BD46E5
:103838005DF8047B704700BF0000014000040040B1
:1038480000080040000C0040000401400040014016
:103858000018004080B483B000AF786000BF0C3718
:10386800BD465DF8047B704780B483B000AF7860D4
:1038780000BF0C37BD465DF8047B704780B582B049
:1038880000AF78607B68002B01D101233FE07B68A3
:1038980093F83D30DBB2002B06D17B68002283F819
:1038A8003C207868FDF768FB7B68242283F83D207C
:1038B8007B681B68DA687B681B6822F40052DA6050
:1038C800786800F071FD7B681B681A697B681B6863
:1038D80022F490421A617B681B685A697B681B68EE
:1038E80022F02A025A617B681B68DA687B681B68C9
:1038F80042F40052DA607B6800221A647B68202256
:1039080083F83D207B68202283F83E200023184658
:103918000837BD4680BD80B58AB002AFF860B9608F
:103928003B601346FB8000237B61FB6893F83D30C6
:10393800DBB2202B7CD1BB68002B02D0FB88002B8C
:1039480001D1012375E0FB6893F83C30012B01D1CC
:1039580002236EE0FB68012283F83C20FB6800220A
:103968001A64FB68212283F83D20FDF75FFC78612B
:10397800FB68FA889A84FB68FA88DA84FB689B6893
:10398800B3F5805F08D1FB681B69002B04D10023C5
:10399800FB61BB68BB6103E0BB68FB610023BB61E3
:1039A800FB68002283F83C202AE03B6800937B698F
:1039B80000228021F86800F0EFFA0346002B01D0BE
:1039C800032336E0FB69002B0BD1BB691B881A4621
:1039D800FB681B68C2F308025A60BB690233BB610B
:1039E80007E0FB691A78FB681B685A60FB690133BA
:1039F800FB61FB68DB8C9BB2013B9AB2FB68DA8403
:103A0800FB68DB8C9BB2002BCFD13B6800937B69B2
:103A180000224021F86800F0BFFA0346002B01D0CD
:103A2800032306E0FB68202283F83D20002300E002
:103A3800022318462037BD4680BD000080B5BAB0C5
:103A480000AF78607B681B681B68C7F8E4307B6848
:103A58001B68DB68C7F8E0307B681B685B69C7F8E0
:103A6800DC300023C7F8D8300023C7F8D430D7F8A3
:103A7800E43003F00F03C7F8D830D7F8D830002B5C
:103A88000FD1D7F8E43003F02003002B09D0D7F882
:103A9800E03003F02003002B03D0786800F0C9FB66
:103AA80056E2D7F8D830002B00F0DE80D7F8DC30AB
:103AB80003F00103002B06D1D7F8E03003F490732C
:103AC800002B00F0D180D7F8E43003F00103002B7D
:103AD8000BD0D7F8E03003F48073002B05D07B6857
:103AE8001B6C43F001027B681A64D7F8E43003F0DA
:103AF8000403002B0BD0D7F8DC3003F00103002BB4
:103B080005D07B681B6C43F002027B681A64D7F807
:103B1800E43003F00203002B0BD0D7F8DC3003F0BD
:103B28000103002B05D07B681B6C43F004027B6803
:103B38001A64D7F8E43003F00803002B11D0D7F843
:103B4800E03003F02003002B05D1D7F8DC3003F078
:103B58000103002B05D07B681B6C43F008027B68CF
:103B68001A647B681B6C002B00F0ED81D7F8E430F9
:103B780003F02003002B08D0D7F8E03003F020032F
:103B8800002B02D0786800F054FB7B681B685B69E7
:103B980003F04003402B0CBF01230023DBB2C7F81E
:103BA800D4307B681B6C03F00803002B03D1D7F8D3
:103BB800D430002B4FD0786800F05CFA7B681B6823
:103BC8005B6903F04003402B41D17B681B681433C9
:103BD800C7F89C30D7F89C3053E8003FC7F89830B6
:103BE800D7F8983023F04003C7F8D0307B681B68BB
:103BF8001433D7F8D020C7F8A820C7F8A430D7F8CE
:103C0800A410D7F8A82041E80023C7F8A030D7F8B7
:103C1800A030002BD9D17B689B6B002B13D07B681D
:103C28009B6B7D4A1A657B689B6B1846FEF711FBF8
:103C38000346002B16D07B689B6B1B6D7A68926BD2
:103C4800104698470EE0786800F090F90AE0786826
:103C580000F08CF906E0786800F088F97B680022AB
:103C68001A6470E100BF6EE17B681B6B012B40F0AA
:103C78004A81D7F8E43003F01003002B00F04381A9
:103C8800D7F8E03003F01003002B00F03C8100234C
:103C9800BB607B681B681B68BB607B681B685B68D4
:103CA800BB60BB687B681B685B6903F04003402B03
:103CB80040F0B4807B689B6B1B685B68A7F8BE30DC
:103CC800B7F8BE30002B00F040817B689B8DB7F8B9
:103CD800BE209A4280F039817B68B7F8BE20DA8529
:103CE8007B689B6BDB69B3F5807F00F088807B681D
:103CF8001B680C33C7F88830D7F8883053E8003F82
:103D0800C7F88430D7F8843023F48073C7F8B83004
:103D18007B681B680C33D7F8B820C7F89420C7F81D
:103D28009030D7F89010D7F8942041E80023C7F8CE
:103D38008C30D7F88C30002BD9D17B681B681433B2
:103D48007B677B6F53E8003F3B673B6F23F00103C2
:103D5800C7F8B4307B681B681433D7F8B420C7F8A9
:103D68008020FB67F96FD7F8802041E80023BB6704
:103D7800BB6F002BE1D17B681B6814333B663B6E3D
:103D880053E8003FFB65FB6D23F04003C7F8B030F4
:103D98007B681B681433D7F8B020FA66BB66B96E27
:103DA800FA6E41E800237B667B6E002BE3D17B68CB
:103DB800202283F83E207B6800221A637B681B68F8
:103DC8000C33FB64FB6C53E8003FBB64BB6C23F013
:103DD8001003C7F8AC307B681B680C33D7F8AC20ED
:103DE800BA657B65796DBA6D41E800233B653B6D2B
:103DF800002BE3D17B689B6B1846FEF7BAF97B680A
:103E08009A8D7B68DB8D9BB2D31A9BB21946786872
:103E180000F0B6F899E000BF434100087B689A8D2E
:103E28007B68DB8D9BB2D31AA7F8CE307B68DB8D1D
:103E38009BB2002B00F08B80B7F8CE30002B00F03F
:103E480086807B681B680C33BB63BB6B53E8003F01
:103E58007B637B6B23F49073C7F8C8307B681B685F
:103E68000C33D7F8C8207A643B64396C7A6C41E823
:103E78000023FB63FB6B002BE3D17B681B681433C7
:103E88007B627B6A53E8003F3B623B6A23F0010395
:103E9800C7F8C4307B681B681433D7F8C4203A636A
:103EA800FB62F96A3A6B41E80023BB62BB6A002BEC
:103EB800E3D17B68202283F83E207B6800221A63C6
:103EC8007B681B680C333B613B6953E8003FFB6030
:103ED800FB6823F01003C7F8C0307B681B680C33FD
:103EE800D7F8C020FA61BB61B969FA6941E80023D3
:103EF8007B617B69002BE3D1B7F8CE30194678682F
:103F080000F03EF823E0D7F8E43003F08003002BFC
:103F180009D0D7F8E03003F08003002B03D078688D
:103F280000F01FF914E0D7F8E43003F04003002B49
:103F38000ED0D7F8E03003F04003002B08D07868A3
:103F480000F05FF904E000BF02E000BF00E000BF3E
:103F5800E837BD4680BD00BF80B483B000AF78604D
:103F680000BF0C37BD465DF8047B704780B483B052
:103F780000AF786000BF0C37BD465DF8047B704722
:103F880080B483B000AF78600B467B8000BF0C37ED
:103F9800BD465DF8047B704780B590B000AFF8600F
:103FA800B9603B601346FB7150E0BB6CB3F1FF3F57
:103FB8004CD0BB6C002B07D0FDF738F902463B68A4
:103FC800D31ABA6C9A4241D2FB681B680C33BB62A5
:103FD800BB6A53E8003F7B627B6A23F4D073FB63C0
:103FE800FB681B680C33FA6B7A633B63396B7A6B3B
:103FF80041E80023FB62FB6A002BE5D1FB681B68E4
:1040080014337B617B6953E8003F3B613B6923F0D4
:104018000103BB63FB681B681433BA6B3A62FB612C
:10402800F9693A6A41E80023BB61BB69002BE5D115
:10403800FB68202283F83D20FB68202283F83E207D
:10404800FB68002283F83C2003230FE0FB681B6811
:104058001A68BB681340BA689A420CBF0123002350
:10406800DBB21A46FB799A429FD0002318464037A4
:10407800BD4680BD80B495B000AF78607B681B6892
:104088000C337B637B6B53E8003F3B633B6B23F450
:104098009073FB647B681B680C33FA6C3A64FB63AF
:1040A800F96B3A6C41E80023BB63BB6B002BE5D18D
:1040B8007B681B6814333B623B6A53E8003FFB6133
:1040C800FB6923F00103BB647B681B681433BA6C7B
:1040D800FA62BB62B96AFA6A41E800237B627B6ACA
:1040E800002BE5D17B681B6B012B19D17B681B6802
:1040F8000C33FB60FB6853E8003FBB60BB6823F0F0
:1041080010037B647B681B680C337A6CBA617B6133
:104118007969BA6941E800233B613B69002BE5D125
:104128007B68202283F83E207B6800221A6300BF48
:104138005437BD465DF8047B704780B584B000AF46
:1041480078607B689B6BFB60FB680022DA85FB6804
:104158000022DA84F868FFF709FF00BF1037BD4670
:1041680080BD80B485B000AF78607B6893F83D303F
:10417800DBB2212B3ED17B689B68B3F5805F14D1FD
:104188007B681B69002B10D17B681B6AFB60FB688E
:104198001B881A467B681B68C2F308025A607B6852
:1041A8001B6A9A1C7B681A6208E07B681B6A591CA8
:1041B8007A6811621A787B681B685A607B68DB8CA6
:1041C8009BB2013B9BB27A681946D184002B0FD170
:1041D8007B681B68DA687B681B6822F08002DA60FB
:1041E8007B681B68DA687B681B6842F04002DA600B
:1041F800002300E0022318461437BD465DF8047B0F
:10420800704780B582B000AF78607B681B68DA6859
:104218007B681B6822F04002DA607B68202283F802
:104228003D207868FFF798FE002318460837BD46FA
:1042380080BD80B58CB000AF78607B6893F83E3065
:10424800DBB2222B40F0AB807B689B68B3F5805FC4
:1042580017D17B681B69002B13D10023FB627B6895
:104268009B6ABB627B681B685B689BB2C3F30803ED
:104278009AB2BB6A1A807B689B6A9A1C7B689A62AE
:1042880026E07B689B6AFB620023BB627B689B68B5
:10429800B3F5805F07D07B689B68002B0AD17B68E9
:1042A8001B69002B06D17B681B685B68DAB2FB6A66
:1042B8001A7008E07B681B685B68DBB203F07F0359
:1042C800DAB2FB6A1A707B689B6A5A1C7B689A622E
:1042D8007B68DB8D9BB2013B9BB27A681946D1851E
:1042E800002B5AD17B681B68DA687B681B6822F050
:1042F8002002DA607B681B68DA687B681B6822F436
:104308008072DA607B681B685A697B681B6822F0D8
:1043180001025A617B68202283F83E207B681B6B70
:10432800012B35D17B6800221A637B681B680C332C
:104338007B617B6953E8003F3B613B6923F01003D5
:104348007B627B681B680C337A6A3A62FB61F969A5
:104358003A6A41E80023BB61BB69002BE5D17B6861
:104368001B681B6803F01003102B0AD10023FB60A5
:104378007B681B681B68FB607B681B685B68FB606D
:10438800FB687B689B8D19467868FFF7F9FD02E0AA
:104398007868FCF7BFFC002302E0002300E002235A
:1043A80018463037BD4680BD2DE9B04FC0B000AFCC
:1043B800C7F8F400D7F8F4301B681B6923F44050A1
:1043C800D7F8F430D968D7F8F4301A6840EA01030E
:1043D8001361D7F8F4309A68D7F8F4301B691A4398
:1043E800D7F8F4305B691A43D7F8F430DB69134324
:1043F800C7F8F830D7F8F4301B68DB6823F41641A7
:1044080021F00C01D7F8F4301A68D7F8F8300B43CC
:10441800D360D7F8F4301B685B6923F44070D7F891
:10442800F4309969D7F8F4301A6840EA0103536107
:10443800D7F8F4301A688F4B9A4205D0D7F8F43081
:104448001A688D4B9A4204D1FEF782FDC7F8FC002A
:1044580003E0FEF769FDC7F8FC00D7F8F430DB6924
:10446800B3F5004F40F00C81D7F8FC300022C7F8B4
:10447800E830C7F8EC20D7E93A4522462B46911890
:10448800B9655B41FB65D7E91623214612EB0108A4
:10449800294643EB01094FF000024FF000034FEAB1
:1044A800C90343EA58734FEAC8029046994623461F
:1044B80018EB0303C7F8E0302B4649EB0303C7F8B2
:1044C800E430D7F8F4305B680022C7F8D830C7F872
:1044D800DC20D7E936120B46DB183B65134642EB66
:1044E80003037B65D7E91423D7E93801FBF768FE96
:1044F80002460B46614BA3FB02235B091C01D7F85C
:10450800FC300022C7F8D030C7F8D420D7E9348966
:1045180042464B469118B9645B41FB64D7E91223C4
:10452800414612EB010A494643EB010B4FF00002EA
:104538004FF000034FEACB0343EA5A734FEACA022B
:1045480092469B4643461AEB0303C7F8C8304B46CE
:104558004BEB0303C7F8CC30D7F8F4305B68002284
:10456800C7F8C030C7F8C420D7E930120B46DB18AB
:104578003B64134642EB03037B64D7E91023D7E976
:104588003201FBF71DFE02460B4611463B4BA3FBCF
:1045980001235B09642202FB03F3CB1ADB0003F15E
:1045A8003202364BA3FB02235B095B0003F4F8736A
:1045B8001C44D7F8FC300022C7F8B830C7F8BC2034
:1045C800D7E92E8942464B469118B9635B41FB6394
:1045D800D7E90E2341465118396349464B417B635D
:1045E8004FF000024FF00003D7E90CAB5946CB005F
:1045F800514643EA51735146CA00104619460346CC
:1046080042469B18C7F8B0304B460A4642EB0303B4
:10461800C7F8B430D7F8F4305B680022C7F8A83080
:10462800C7F8AC20D7E92A120B46DB18BB62134641
:1046380042EB0303FB62D7E90A23D7E92C01FBF716
:10464800BFFD02460B460D4BA3FB02135B09642119
:1046580001FB03F3D31ADB003233084AA2FB03231E
:104668005B0903F00702D7F8F4301B6822449A600C
:1046780006E100BF00100140001401401F85EB5106
:10468800D7F8FC300022C7F8A030C7F8A420D7E933
:10469800288942464B46911839625B417B62D7E9CB
:1046A800082341465418494643EB01054FF00002E0
:1046B8004FF00003EB0043EA5473E20014461D4632
:1046C8004346E318C7F898304B4645EB0303C7F851
:1046D8009C30D7F8F4305B680022C7F89030C7F8F0
:1046E80094204FF000024FF00003D7E924452946F3
:1046F8008B00214643EA917321468A00D7E92601B7
:10470800FBF75EFD02460B46604BA3FB02235B09E9
:104718001C01D7F8FC300022C7F88830C7F88C2075
:10472800D7E9228942464B469118B9615B41FB6142
:10473800D7E9062341465118396149464B417B6107
:104748004FF000024FF00003D7E904AB5946CB0005
:10475800514643EA51735146CA001046194603466A
:1047680042469B18C7F880304B460A4642EB030383
:10477800C7F88430D7F8F4305B680022BB67FA6763
:104788004FF000024FF00003D7E91E8949468B001D
:10479800414643EA917341468A00D7E92001FBF775
:1047A8000FFD02460B461146384BA3FB01235B095C
:1047B800642202FB03F3CB1A1B013233334AA2FBF8
:1047C80003235B0903F0F0031C44D7F8FC300022F4
:1047D8003B677A67D7E91C8942464B469118B9600E
:1047E8005B41FB60D7E902234146511839604946CD
:1047F8004B417B604FF000024FF00003D7E900AB5C
:104808005946CB00514643EA51735146CA001046F7
:104818001946034642469B18BB664B460A4642EB7E
:104828000303FB66D7F8F4305B6800223B667A66C0
:104838004FF000024FF00003D7E9188949468B0072
:10484800414643EA917341468A00D7E91A01FBF7CA
:10485800B7FC02460B460D4BA3FB02135B09642110
:1048680001FB03F3D31A1B013233084AA2FB0323CB
:104878005B0903F00F02D7F8F4301B6822449A60F2
:1048880000BF07F58077BD46BDE8B08F1F85EB51A7
:1048980002440346934200D1704703F8011BF9E72D
:1048A80070B50D4D0D4C641BA4100026A64209D10D
:1048B8000B4D0C4C00F018F8641BA4100026A642FF
:1048C80005D170BD55F8043B98470136EEE755F819
:1048D800043B98470136F2E7584900085849000850
:1048E800584900085C490008F8B500BFF8BC08BC86
:1048F8009E467047F8B500BFF8BC08BC9E46704796
:104908004947204F464620002D3E204947204F4E1C
:10491800200A00002564000020000000255800003F
:1049280025303258000000002020202020202020A0
:104938000000000000000000010203040607080947
:0849480000000000010203045D
:08495000A8B8FF7F0100000080
:04495800AD010008A5
:04495C0089010008C5
:10496000010000000024F40010000000010000001D
:0400000508001115C9
:00000001FF
